:100000000C942A000C9415050C9447000C9447009E
:100010000C94840F0C94300F0C9447000C94470000
:100020000C9447000C9447000C94690E0C94260E17
:100030000C9447000C9424100C9447000C94111F4E
:100040000C946F000C9447000C9447000C944700EC
:100050000C94470011241FBECFE5D8E0DEBFCDBF12
:1000600017E0A0E6B0E0E0E7F3E402C005900D92EF
:10007000A636B107D9F727E0A6E6B7E001C01D9282
:10008000AF38B207E1F70E942C0D0C94B6210C9406
:10009000000087B18F73806487B987B18F7D87B97E
:1000A00086B1806286B980B78F7180BF86B1876064
:1000B00086B98FB780688FBF86B1886086B986B1F0
:1000C000806886B9089597B1907E892B87B986B1EB
:1000D000806486B9349BFECF84B195B108951F9298
:1000E0000F920FB60F9211242F933F934F935F936C
:1000F0006F937F938F939F93AF93BF93EF93FF93F0
:1001000087E00E94630022E3AC01249FC001259F89
:10011000900D1124892F99278695869590936707CE
:10012000809366074C9738F041E060E070E088EC1F
:1001300092E40E9426038091660790916707469794
:1001400010F40E944103FF91EF91BF91AF919F91F5
:100150008F917F916F915F914F913F912F910F9070
:100160000FBE0F901F90189541E067E082E00E945B
:100170004C0341E067E082E00E94BD03089540E047
:1001800067E082E00E94BD03089541E067E082E0FD
:100190000E94BD03089567E082E00E945C04089518
:1001A000CF92DF92EF92FF92CF93DF930E947E0C6B
:1001B00081E790E00E94F80B60E081E00E94820CF1
:1001C0008EE790E00E94F80B1092680704C00E942E
:1001D000D60A80936807809168079FEC980F923049
:1001E00020F0909169079111F2CF813309F068C036
:1001F0000E947E0C85E890E00E94F80B60E081E0B0
:100200000E94820C86E990E00E94F80B1092680729
:1002100004C00E94D60A80936807809168079FEC0B
:10022000980F943020F0909169079111F2CF8133AB
:1002300019F40E94AB0CEEC1823319F40E94C70C72
:10024000E9C1833319F40E94E30CE4C1843309F05B
:10025000E1C10E947E0C86EA90E00E94F80B60E00B
:1002600081E00E94820C87EB90E00E94F80B1092D4
:10027000680704C00E94D60A8093680780916807C7
:100280009FEC980F933020F0909169079111F2CF75
:10029000813319F40E94FF0CBDC1823319F40E940E
:1002A0001B0DB8C1833309F0B5C10E94AB0C0E948D
:1002B000C70C0E94E30C0E94FF0C0E941B0DAAC1F8
:1002C000823309F0A7C10E947E0C83EC90E00E946B
:1002D000F80B60E081E00E94820C8FE990E00E94C0
:1002E000F80B1092680704C00E94D60A8093680732
:1002F000809168079DEC980F923020F090916907EB
:100300009111F2CF833309F068C00E947E0C85E81A
:1003100090E00E94F80B60E081E00E94820C86E988
:1003200090E00E94F80B1092680704C00E94D60A61
:1003300080936807809168079FEC980F943020F0B5
:10034000909169079111F2CF813319F40E94B10C99
:1003500061C1823319F40E94CD0C5CC1833319F45E
:100360000E94E90C57C1843309F054C10E947E0CED
:1003700086EA90E00E94F80B60E081E00E94820C27
:1003800087EB90E00E94F80B1092680704C00E946F
:10039000D60A80936807809168079FEC980F933086
:1003A00020F0909169079111F2CF813319F40E94E6
:1003B000050D30C1823319F40E94210D2BC1833306
:1003C00009F028C10E94B10C0E94CD0C0E94E90CDA
:1003D0000E94050D0E94210D1DC1843309F01AC130
:1003E0000E947E0C81ED90E00E94F80B60E081E0BD
:1003F0000E94820C80EE90E00E94F80B1092680739
:1004000004C00E94D60A80936807809168079BEC1D
:10041000980F923020F0909169079111F2CF8533B7
:1004200009F0B6C00E947E0C87EE90E00E94F80BA7
:1004300060E081E00E94820C88EF90E00E94F80B5F
:100440001092680710928207109283071092840717
:1004500010928507D0E045C01092680704C00E9442
:10046000D60A80936807C091680780ED8C0F8A30A8
:1004700040F0CA3231F0C33221F0909169079111F6
:10048000EECFED2FF0E0EA57F84FC0838A3038F511
:1004900020E030E040E251E46091820770918307F0
:1004A00080918407909185070E94E5206B017C0173
:1004B0006C2F70E060537109072E000C880B990BAC
:1004C0000E943020A70196010E941C1F60938207A2
:1004D00070938307809384079093850701C0D5E0CC
:1004E000DF5FD33008F4B8CFC0908207D090830785
:1004F000E0908407F090850720E030E048E652E481
:10050000C701B6010E94E0208823BCF020E030E063
:1005100040E752E4C701B6010E94881F18166CF02C
:1005200080E090E0ACE5B2E480938207909383078B
:10053000A0938407B093850720C020E030E040E717
:1005400052E4C701B6010E94E0201816B4F420E07E
:1005500030E048E752E4C701B6010E94881F181630
:1005600064F080E090E0A2E8B2E480938207909388
:100570008307A0938407B0938507609182077091E9
:10058000830780918407909185070E94D60D42C011
:10059000863309F03FC00E947E0C86E091E00E9405
:1005A000F80B60E081E00E94820C85E191E00E94FE
:1005B000F80B1092680704C00E94D60A809368075F
:1005C0008091680799EC980F923020F0909169071C
:1005D0009111F2CF8733C1F40E947E0C83E291E047
:1005E0000E94F80B609166077091670780E090E0C9
:1005F0000E940B0C2FEF83ED90E321508040904040
:10060000E1F700C0000006C0883321F410926907AA
:100610000E947E0CDF91CF91FF90EF90DF90CF9002
:10062000089541E063E083E00E944C0341E066E00E
:1006300083E00E944C0341E063E083E00E94BD033D
:1006400041E066E083E00E94BD030895442319F071
:10065000413061F0089540E063E083E00E94BD0313
:1006600041E066E083E00E94BD03089541E063E05D
:1006700083E00E94BD0340E066E083E00E94BD038A
:10068000089541E063E083E00E94BD0341E066E03D
:1006900083E00E94BD030895442319F04130C9F15D
:1006A0000895813091F028F08230D9F0833029F11B
:1006B00008952AB381E090E002C0880F991F6A95DF
:1006C000E2F7809582238ABB089527B381E090E00A
:1006D00002C0880F991F6A95E2F78095822387BB35
:1006E000089524B381E090E002C0880F991F6A95B5
:1006F000E2F78095822384BB089521B381E090E0E6
:1007000002C0880F991F6A95E2F78095822381BB0A
:100710000895813089F028F08230C9F0833011F1DA
:1007200008952AB381E090E002C0880F991F6A956E
:10073000E2F7822B8ABB089527B381E090E002C0E4
:10074000880F991F6A95E2F7822B87BB089524B31F
:1007500081E090E002C0880F991F6A95E2F7822B32
:1007600084BB089521B381E090E002C0880F991FF7
:100770006A95E2F7822B81BB08954423D9F1413079
:1007800009F06BC0813091F028F08230D9F08330CD
:1007900029F108952BB381E090E002C0880F991FE2
:1007A0006A95E2F7809582238BBB089528B381E098
:1007B00090E002C0880F991F6A95E2F78095822326
:1007C00088BB089525B381E090E002C0880F991F8F
:1007D0006A95E2F78095822385BB089522B381E074
:1007E00090E002C0880F991F6A95E2F780958223F6
:1007F00082BB0895813089F028F08230C9F08330BF
:1008000011F108952BB381E090E002C0880F991F89
:100810006A95E2F7822B8BBB089528B381E090E0C4
:1008200002C0880F991F6A95E2F7822B88BB089552
:1008300025B381E090E002C0880F991F6A95E2F726
:10084000822B85BB089522B381E090E002C0880F1F
:10085000991F6A95E2F7822B82BB0895813079F067
:1008600028F08230A9F08330E1F024C089B390E011
:1008700002C0959587956A95E2F78170089586B3D1
:1008800090E002C0959587956A95E2F7817008958A
:1008900083B390E002C0959587956A95E2F78170E1
:1008A000089580B390E002C0959587956A95E2F728
:1008B0008170089580E00895813089F028F08230B9
:1008C000C9F0833011F108952BB381E090E002C0AC
:1008D000880F991F6A95E2F782278BBB089528B38A
:1008E00081E090E002C0880F991F6A95E2F78227A5
:1008F00088BB089525B381E090E002C0880F991F5E
:100900006A95E2F7822785BB089522B381E090E0E3
:1009100002C0880F991F6A95E2F7822782BB08956B
:10092000813089F028F08230C9F0833011F10895C8
:100930002BB381E090E002C0880F991F6A95E2F71F
:10094000822B8BBB089528B381E090E002C0880F12
:10095000991F6A95E2F7822B88BB089525B381E041
:1009600090E002C0880F991F6A95E2F7822B85BB41
:10097000089522B381E090E002C0880F991F6A9524
:10098000E2F7822B82BB08950E944F0A08951F93BD
:10099000CF93DF93162FD42F883008F087E0C82F2D
:1009A000C0650E94570A8C2F0E94630A812F0E9403
:1009B0007F0A8D2F0E947F0A0E948D0A8FE39CE997
:1009C0000197F1F700C00000DF91CF911F910895CA
:1009D000CF93DF93D62F883008F087E0C82FC0650B
:1009E0000E94570A8C2F0E94630A8D2F0E947F0A53
:1009F0000E945D0A8C2F0E94740A0E94860AC82FEA
:100A00000E948D0A8C2FDF91CF9108958FB7806857
:100A10008FBF8BB780648BBF40E062E083E00E94B1
:100A20004C0385B7826085BF08951F920F920FB661
:100A30000F9211242F923F924F925F927F928F924A
:100A40009F92AF92BF92CF92DF92EF92FF920F935D
:100A50001F932F933F934F935F936F937F938F9346
:100A60009F93AF93BF93EF93FF93CF93DF93CDB754
:100A7000DEB72897DEBFCDBF8091690790916A07E6
:100A8000892B09F0E4C40E947E0C89EB92E00E945D
:100A90000D1080E391E00E940D1061E670E080E0AF
:100AA00090E00E94A70D712C00E0BDC486E491E0A7
:100AB0000E94F80B10E015C00E94D60A80936807C8
:100AC0000CC0E1E0F0E0EC0FFD1FE10FF11D8083B1
:100AD0000E94B70B109268071F5F80916807811111
:100AE000F0CF143048F360E081E00E94820C81E591
:100AF00091E00E94F80B10E016C00E94D60A809385
:100B000068070DC0E5E0F0E0EC0FFD1FE10FF11DFF
:100B100080838AE20E94B70B109268071F5F809162
:100B200068078111EFCF143040F30E947E0C8BE5F3
:100B300091E00E94F80B60E081E00E94820C8BE65D
:100B400091E00E94F80B04C00E94D60A80936807C7
:100B5000809168078A3211F08332B1F78A32E9F462
:100B60000E947E0C81E591E00E94F80B10E00AC023
:100B7000E5E0F0E0EC0FFD1FE10FF11D80810E9428
:100B8000B70B1F5F1430A0F32FEF83ED90E32150DC
:100B900080409040E1F700C000000E947E0C10E011
:100BA000E3C0A980B12CE12EF12C67012FEFC21A0E
:100BB000D20AB60180E090E00E94E804A816B906C7
:100BC00009F0D1C0AA80B12C470182E0880E911CA7
:100BD000B40180E090E00E94E804A816B90609F08C
:100BE000C2C0AB80B12C170193E0290E311CB101BA
:100BF00080E090E00E94E804A816B90609F0B3C0AE
:100C00004C80512C570124E0A20EB11CB50180E0AC
:100C100090E00E94E8044816590609F0A4C0ED804F
:100C2000F12CB60181E090E00E94E804E816F90694
:100C300009F099C0EE80F12CB40181E090E00E94AF
:100C4000E804E816F90609F08EC0EF80F12CB10136
:100C500081E090E00E94E804E816F90609F083C0FC
:100C6000E884F12CB50181E090E00E94E804E816E8
:100C7000F90609F078C089E791E00E94F80B60E07E
:100C800081E00E94820C87E891E00E94F80B1091AD
:100C90008A071F5F60ED77E080E090E00E94DD0E44
:100CA00080918D07882311F0823081F421E030E0BB
:100CB00030936A0720936907811147C081E08093D0
:100CC00081076894772472F804E04DC0813009F000
:100CD00041C089EB92E00E940D1080E991E00E94F2
:100CE0000D108EEB91E00E940D1089EB92E00E94B6
:100CF0000D1089EB92E00E940D105F9BFECF0E94C9
:100D0000201080938E0789EB92E00E940D1089EBF2
:100D100092E00E940D1080918E07813359F481E09A
:100D200090E090936A07809369076894772472F83B
:100D300004E019C0823399F410926A07109269078F
:100D40006894772472F804E00EC06894772472F8EF
:100D500004E009C06894772472F804E004C0689441
:100D6000772472F804E01C5F80918A07811708F0ED
:100D700018CF0430B9F08CEE91E00E94F80B60E0DF
:100D800081E00E94820C8CEF91E00E94F80B8FEFC3
:100D900093ED20E3815090402040E1F700C0000037
:100DA0000E947E0C0F5F033009F03CC30E947E0C52
:100DB00086E092E00E94F80B0E94BF000E94FF0CA8
:100DC0000E941B0D0E94AB0C8FEF9DEE22E0815024
:100DD00090402040E1F700C000000E94B10C8FEF6E
:100DE0009DEE22E0815090402040E1F700C00000DD
:100DF0000E94FF0C0E94AB0C8FEF9DEE22E0815011
:100E000090402040E1F700C000000E94B10C8FEF3D
:100E10009DEE22E0815090402040E1F700C00000AC
:100E20000E94E30C8FEF9DEE22E081509040204025
:100E3000E1F700C000000E94E90C8FEF9DEE22E078
:100E4000815090402040E1F700C000000E94E30C78
:100E50008FEF9DEE22E0815090402040E1F700C0EE
:100E600000000E94E90C8FEF9DEE22E0815090403F
:100E70002040E1F700C000000E94AB0C0E94E30C90
:100E80008FEF9DEE22E0815090402040E1F700C0BE
:100E900000000E94B10C0E94E90C8FEF9DEE22E051
:100EA000815090402040E1F700C000000E94B10C4A
:100EB0000E94E90C8FEF9DEE22E08150904020408F
:100EC000E1F700C000000E94AB0C0E94E30C8FEF22
:100ED0009DEE22E0815090402040E1F700C00000EC
:100EE0000E94B10C0E94E90C8FEF9DEE22E0815030
:100EF00090402040E1F700C000000E94AB0C8FEF53
:100F00009DEE22E0815090402040E1F700C00000BB
:100F10000E94B10C0E94E30C8FEF9DEE22E0815005
:100F200090402040E1F700C000000E94E90C8FEFE4
:100F30009DEE22E0815090402040E1F700C000008B
:100F40000E94AB0C8FEF9DEE22E08150904020403C
:100F5000E1F700C000000E94B10C0E94E30C8FEF8B
:100F60009DEE22E0815090402040E1F700C000005B
:100F70000E94E90C8FEF9DEE22E0815090402040CE
:100F8000E1F700C000000E94AB0C8FEF9DEE22E065
:100F9000815090402040E1F700C000000E94B10C59
:100FA0000E94E30C8FEF9DEE22E0815090402040A4
:100FB000E1F700C000000E94E90C8FEF9DEE22E0F7
:100FC000815090402040E1F700C000000E94C50021
:100FD0000E94AB0C8FEF9DEE22E0815090402040AC
:100FE000E1F700C000000E94B10C0E94E30C8FEFFB
:100FF0009DEE22E0815090402040E1F700C00000CB
:101000000E94E90C8FEF9DEE22E08150904020403D
:10101000E1F700C000000E94AB0C8FEF9DEE22E0D4
:10102000815090402040E1F700C000000E94B10CC8
:101030008FEF9DEE22E0815090402040E1F700C00C
:1010400000000E94E30C8FEF9DEE22E08150904063
:101050002040E1F700C000000E94E90C8FEF9DEEF8
:1010600022E0815090402040E1F700C000000E9443
:10107000E30C8FEF9DEE22E0815090402040E1F79D
:1010800000C000000E94E90C8FEF9DEE22E081502D
:1010900090402040E1F700C000000E94AB0C0E948D
:1010A000E30C8FEF9DEE22E0815090402040E1F76D
:1010B00000C000000E94B10C0E94E90C8FEF9DEE71
:1010C00022E0815090402040E1F700C000000E94E3
:1010D000AB0C0E94E30C8FEF9DEE22E0815090401C
:1010E0002040E1F700C000000E94B10C0E94E90C12
:1010F0008FEF9DEE22E0815090402040E1F700C04C
:1011000000000E94AB0C8FEF9DEE22E081509040DA
:101110002040E1F700C000000E94B10C0E94E30CE7
:101120008FEF9DEE22E0815090402040E1F700C01B
:1011300000000E94E90C8FEF9DEE22E0815090406C
:101140002040E1F700C000000E94AB0C8FEF9DEE45
:1011500022E0815090402040E1F700C000000E9452
:10116000B10C0E94E30C8FEF9DEE22E08150904085
:101170002040E1F700C000000E94E90C8FEF9DEED7
:1011800022E0815090402040E1F700C000000E9422
:10119000B70C0E94CB008FEF9DEE22E08150904073
:1011A0002040E1F700C000000E94B70C0E94CB0075
:1011B0008FEF93EC29E0815090402040E1F700C090
:1011C00000000E94B70C0E94CB008FEF99E628E147
:1011D000815090402040E1F700C000000E94B70C11
:1011E0000E94CB008FEF91EE24E081509040204090
:1011F000E1F700C000000E94B70C0E94CB008FEF07
:101200009DEE22E0815090402040E1F700C00000B8
:101210000E94B70C0E94CB008FEF9DEE22E0815020
:1012200090402040E1F700C000000E94B70C0E94EF
:10123000CB008FE39CE90197F1F700C000000E940A
:10124000B70C0E94CB009FEF2DEE82E09150204022
:101250008040E1F700C000000E94B70C0E94CB0064
:101260009FEF2DEE82E0915020408040E1F700C0DA
:1012700000000E94B70C0E94CB009FEF2DEE82E091
:10128000915020408040E1F700C000000E94EF0C28
:101290000E940B0D0E94B70C0E94D30C0E94270DD8
:1012A0000E94CB009FEF23EC89E0915020408040CA
:1012B000E1F700C000000E94B70C0E94EF0C0E94F2
:1012C0000B0D0E94D30C0E94270D0E94CB009FEFB4
:1012D0002DEE82E0915020408040E1F700C00000F8
:1012E0000E94EF0C0E940B0D0E94B70C0E94D30CC1
:1012F0000E94270D0E94CB009FEF21EE84E09150C9
:1013000020408040E1F700C000000E94EF0C0E94E6
:101310000B0D0E94B70C0E94D30C0E94270D0E9457
:10132000CB009FEF2DEE82E0915020408040E1F70E
:1013300000C000000E94EF0C0E940B0D0E94B70C31
:101340000E94D30C0E94270D0E94CB009FEF23ED3B
:1013500080E3915020408040E1F700C000000E94EF
:10136000EF0C0E940B0D0E94B70C0E94D30C0E9440
:10137000270D0E94CB008FE39CE90197F1F700C095
:1013800000000E94EF0C0E940B0D0E94B70C0E94FF
:10139000D30C0E94270D0E94CB008FE39CE901979C
:1013A000F1F700C000000E94EF0C0E940B0D0E949C
:1013B000B70C0E94D30C0E94270D0E94CB009FEF18
:1013C00021EE84E0915020408040E1F700C0000011
:1013D0000E94B70C0E94BF009FEF24E38CE0915065
:1013E00020408040E1F700C000000E94B70C0E943E
:1013F000CB009FEF24E38CE0915020408040E1F748
:1014000000C000000E94B70C0E94BF009FEF2DEEAD
:1014100082E0915020408040E1F700C000000E942F
:10142000C500CACC739492E0971508F03FCB84E1D5
:1014300092E00E940D1085E292E00E940D1089EB6F
:1014400092E00E940D1089EB92E00E940D10289608
:101450000FB6F894DEBF0FBECDBFDF91CF91FF91E5
:10146000EF91BF91AF919F918F917F916F915F911C
:101470004F913F912F911F910F91FF90EF90DF902F
:10148000CF90BF90AF909F908F907F905F904F9044
:101490003F902F900F900FBE0F901F90189580E8EF
:1014A0008FBF85E086BF8CE080B911B8089584EACB
:1014B00086BF06B607FEFDCF089584EA86BF06B64E
:1014C00007FEFDCF0895880F83B984E886BF06B66E
:1014D00007FEFDCF2FEF81EE94E021508040904039
:1014E000E1F700C00000089590E0880F991F816027
:1014F00083B984E886BF06B607FEFDCF089583B999
:1015000084E886BF06B607FEFDCF089584E886BF4F
:1015100006B607FEFDCF83B1089584E986BF86B77E
:10152000806886BF089540E063E080E00E944C033D
:1015300040E064E080E00E944C0340E065E080E031
:101540000E944C0340E066E080E00E944C0363E0B0
:1015500080E00E94900464E080E00E94900465E0D6
:1015600080E00E94900466E080E00E94900441E0E8
:1015700060E080E00E944C0341E061E080E00E9476
:101580004C0341E062E080E00E944C0340E060E0F8
:1015900080E00E94BD0340E061E080E00E94BD0366
:1015A00040E062E080E00E94BD0308951F93CF9366
:1015B000DF93D0E010E028C041E06D2F80E00E9472
:1015C000BD03C3E019C06C2F80E00E942E0481117E
:1015D00012C0EC2FF0E03397EE0FFF1FEE0FFF1F4E
:1015E000E05AFF4FED0FF11D10816C2F80E00E943B
:1015F0002E048823D1F3CF5FC73028F340E06D2F4E
:1016000080E00E94BD03DF5FD330B0F2812FDF9115
:10161000CF911F910895CF93C82F41E060E081E002
:101620000E94BD0341E061E081E00E94BD0341E012
:1016300062E081E00E94BD0388B39C2F907F8F7091
:10164000892B88BB40E062E081E00E94BD038FE906
:101650009FE00197F1F700C0000041E062E081E007
:101660000E94BD0320E1C29FC001112498B39F7066
:10167000892B88BB40E062E081E00E94BD038FE9D6
:101680009FE00197F1F700C0000041E062E081E0D7
:101690000E94BD038FE19EE40197F1F700C00000B6
:1016A000CF91089541E060E081E00E944C0341E069
:1016B00061E081E00E944C0341E062E081E00E9431
:1016C0004C0341E064E081E00E944C0341E065E0AE
:1016D00081E00E944C0341E066E081E00E944C03FF
:1016E00041E067E081E00E944C0341E060E081E07E
:1016F0000E94BD0341E061E081E00E94BD0341E042
:1017000062E081E00E94BD0341E064E081E00E946C
:10171000BD0341E065E081E00E94BD0341E066E079
:1017200081E00E94BD0341E067E081E00E94BD03CB
:101730002FEF81EE94E0215080409040E1F700C00F
:10174000000083E30E940B0B82E30E940B0B88E2F4
:101750000E940B0B81E00E940B0B82E00E940B0B9E
:1017600086E00E940B0B8EE00E940B0B0895CF9336
:10177000C82F40E060E081E00E94BD0341E061E0ED
:1017800081E00E94BD0341E062E081E00E94BD0370
:1017900088B39C2F907F8F70892B88BB40E062E0DC
:1017A00081E00E94BD038FE99FE00197F1F700C03F
:1017B000000041E062E081E00E94BD0320E1C29FA1
:1017C000C001112498B39F70892B88BB40E062E070
:1017D00081E00E94BD038FE99FE00197F1F700C00F
:1017E000000041E062E081E00E94BD03CF910895D6
:1017F0000F931F93CF938C01C0E003C00E94B70BDF
:10180000CF5FF801EC0FF11D80818111F7CFCF91EF
:101810001F910F9108958F929F92AF92BF92EF9276
:10182000FF920F931F93CF93DF934B015C01672BC4
:10183000682B692B19F480E30E94B70B01E010E0DC
:10184000E12CF12C2FC0C701880F991FB701660F3B
:10185000771F660F771F660F771F7C01E60EF71E56
:10186000C501B4012AE030E040E050E00E9466216A
:10187000E60EF71EE114F10459F4C801880F991F10
:10188000000F111F000F111F000F111F080F191F4C
:10189000C501B4012AE030E040E050E00E9466213A
:1018A00049015A0181149104A104B10461F6A12CEB
:1018B000B12C16C0C7016AE070E00E945221D62FF9
:1018C000C72F805D0E94B70BED2EFC2EE114F104B2
:1018D00039F40A30110524F07801AA24A394B12C1C
:1018E000EA14FB0439F7DF91CF911F910F91FF901C
:1018F000EF90BF90AF909F908F90089581E00E94ED
:101900000B0B0895CF93DF9300D0CDB7DEB790E8EF
:10191000998390EC9A83823008F080E0683208F076
:1019200060E0E1E0F0E0EC0FFD1FE80FF11D8081C9
:10193000860F0E940B0B0F900F90DF91CF910895AF
:1019400041E062E082E00E944C0341E062E082E01C
:101950000E94BD03089540E062E082E00E94BD0362
:10196000089541E062E082E00E94BD03089562E0D4
:1019700082E00E945C04089541E063E082E00E94FE
:101980004C0341E063E082E00E94BD03089540E023
:1019900063E082E00E94BD03089541E063E082E0DD
:1019A0000E94BD03089563E082E00E945C040895F4
:1019B00041E064E082E00E944C0341E064E082E0A8
:1019C0000E94BD03089540E064E082E00E94BD03F0
:1019D000089541E064E082E00E94BD03089564E060
:1019E00082E00E945C04089541E065E082E00E948C
:1019F0004C0341E065E082E00E94BD03089540E0B1
:101A000065E082E00E94BD03089541E065E082E068
:101A10000E94BD03089565E082E00E945C04089581
:101A200041E066E082E00E944C0341E066E082E033
:101A30000E94BD03089540E066E082E00E94BD037D
:101A4000089541E066E082E00E94BD03089566E0EB
:101A500082E00E945C0408950E9449000E94B40044
:101A60000E94C4040E9406050E94930A0E94520B21
:101A70000E94A00C0E94BC0C0E94D80C0E94F40C86
:101A80000E94100D0E94B60D0E94C00D0E94210EF2
:101A900060E070E0CB010E94D60D0E94D00E0E9443
:101AA000EB0F0E94110360E084E00E94E8048F3F86
:101AB00031F060E084E00E94E80480938A0761E0EE
:101AC00084E00E94E8048F3F31F061E084E00E94EE
:101AD000E80480938A0762E084E00E94E8048F3F74
:101AE00031F062E084E00E94E80480937000C1E07D
:101AF0000BC041E36C2F85E00E94C70441E36C2FCB
:101B000086E00E94C704CF5FC53098F38BE492E073
:101B10000E940D108BE592E00E940D1089EB92E07F
:101B20000E940D100E94280F65E070E080E090E0B8
:101B30000E94DD0E87E00E94630002C00E94D00078
:101B40008091690790916A07892BC1F7F9CF1DBC75
:101B50001CBC27E833E137BD26BD7BBD6ABD8FB510
:101B6000826A8FBD8EB58B618EBD089581B3806210
:101B700081BB61E670E080E090E00E94A70D0895CF
:101B80008FB780688FBF83B7886083BF83B7806457
:101B900083BF83B78F7C806283BF89B7816089BF31
:101BA00041E063E081E00E944C030895CF92DF9210
:101BB000EF92FF926B017C0120E030E0A9010E94CE
:101BC000881F88235CF020E030E048EC52E4C70135
:101BD000B6010E94E02018162CF00CC0C12CD12CAC
:101BE000760108C00F2EC12CD12CF8ECEF2EF2E4B8
:101BF000FF2EF02D20E030E0A901C701B6010E94C0
:101C0000881F8823B9F020E030E048EC52E4C70197
:101C1000B6010E948D1F20E030E040E853E40E94AE
:101C2000E52020E030E040E85FE30E941B1F0E94B7
:101C3000FF1F01C060E06CBFFF90EF90DF90CF907E
:101C4000089583B7887F856083BF08951F920F92A0
:101C50000FB60F9211244F935F936F937F938F93DF
:101C60009F93AF93BF938091770790917807A0914E
:101C70007907B0917A070196A11DB11D809377076E
:101C800090937807A0937907B0937A0740917F07E4
:101C90005091800760E070E084179507A607B707AA
:101CA00059F41092770710927807109279071092E2
:101CB0007A0780917E0782BFBF91AF919F918F91EC
:101CC0007F916F915F914F910F900FBE0F901F907A
:101CD00018951F920F920FB60F9211244F935F9396
:101CE0006F937F938F939F93AF93BF93809173076D
:101CF00090917407A0917507B09176070196A11D88
:101D0000B11D8093730790937407A0937507B093E8
:101D1000760781309105A105B105B9F440917F079F
:101D20005091800760E070E084179507A607B70719
:101D300061F4109273071092740710927507109255
:101D4000760780917E078CBF1EC081309105A1056A
:101D5000B10519F48FEF8CBF16C040917F075091E9
:101D6000800760E070E084179507A607B70759F46D
:101D700010927307109274071092750710927607ED
:101D800080917E078CBFBF91AF919F918F917F9182
:101D90006F915F914F910F900FBE0F901F9018950C
:101DA0008FB780688FBF85B5877F85BD85B58F7BF1
:101DB00085BD89B7806489BF08950F931F939B01E8
:101DC000AC01A8EEB3E00E9488218B019C016894CD
:101DD00015F836952795179507951694D1F7013084
:101DE00041E014072105310560F4802F819580932F
:101DF0007B0784BD81E090E090937D0780937C0712
:101E000024C001110CC0AB01BC01032E3EE076954D
:101E10006795579547953A95D1F7302D0DC0AB0191
:101E2000BC01032E3EE076956795579547953A9508
:101E3000D1F7302D4F5F5F4F50937D0740937C0764
:101E4000802F819580937B0784BD1F910F9108950A
:101E500085B5876085BD089585B5887F85BD089562
:101E60001F920F920FB60F9211242F933F934F930F
:101E70005F936F937F938F939F93AF93BF93EF93F2
:101E8000FF9380916F0790917007A0917107B091B7
:101E900072070196A11DB11D80936F079093700783
:101EA000A0937107B093720740917C0750917D0712
:101EB00060E070E084179507A607B707A1F480914A
:101EC0006907811103C00E947E0C02C00E942C0F82
:101ED00010926F071092700710927107109272079C
:101EE00080917B0784BDFF91EF91BF91AF919F914E
:101EF0008F917F916F915F914F913F912F910F90B3
:101F00000FBE0F901F9018951F920F920FB60F9251
:101F100011244F935F936F937F938F939F93AF930E
:101F2000BF9380916B0790916C07A0916D07B09162
:101F30006E070196A11DB11D80936B0790936C07EE
:101F4000A0936D07B0936E0781309105A105B1058F
:101F5000B9F440917C0750917D0760E070E08417F0
:101F60009507A607B70761F410926B0710926C07EC
:101F700010926D0710926E0780917B0783BD1EC083
:101F800081309105A105B10519F48FEF83BD16C00D
:101F900040917C0750917D0760E070E084179507C1
:101FA000A607B70759F410926B0710926C071092AE
:101FB0006D0710926E0780917B0783BDBF91AF9133
:101FC0009F918F917F916F915F914F910F900FBE75
:101FD0000F901F9018958FB780688FBF8AB1806C63
:101FE0008AB941E061E083E00E944C0340E060E098
:101FF00083E00E944C038AB188618AB98BB1826008
:102000008BB980B58174866A80BD8FEC89B910BCAC
:1020100008958CB95D9BFECF08950F931F93CF93C6
:102020008C01C0E003C00E940910CF5FF801EC0FE3
:10203000F11D80818A30B9F7CF911F910F910895DA
:102040005D9BFECF8CB108951F920F920FB60F9239
:1020500011244F925F926F927F928F929F92AF92D4
:10206000BF92CF92DF92EF92FF920F931F932F9325
:102070003F934F935F936F937F938F939F93AF9310
:10208000BF93EF93FF93CF93DF93CDB7DEB7669700
:10209000DEBFCDBF19821A821B821C821D821E8266
:1020A0001F82188619861A861B861C861D861E8628
:1020B0001F86188A198A1A8A1B8A1C8A80916907C6
:1020C000811102C00E94280F80918D07882309F496
:1020D0002FC533C55F9BFECF8CB180938C078133B6
:1020E00009F0E0C089EB92E00E940D108AE692E0D0
:1020F0000E940D1089EB92E00E940D1010E00EC0BE
:102100005F9BFECFE12EF12C0E942010EDE0F0E06D
:10211000EC0FFD1FEE0DFF1D80831F5F143080F359
:1021200089EB92E00E940D1089EB92E00E940D1065
:1021300087E892E00E940D1089EB92E00E940D105A
:1021400010E00EC05F9BFECFE12EF12C0E9420100C
:10215000E1E1F0E0EC0FFD1FEE0DFF1D80831F5F3E
:10216000143080F3812C84C0CD84D12C082D10E054
:1021700078012FEFE21AF20AB70185E090E00E94A1
:10218000E804C816D90609F071C0CE84D12C3801F4
:1021900082E0680E711CB30185E090E00E94E804C3
:1021A000C816D90609F062C0AF84B12C680193E06B
:1021B000C90ED11CB60185E090E00E94E804A81683
:1021C000B90609F053C0A888B12C0C5F1F4FB801A5
:1021D00085E090E00E94E804A816B90609F046C020
:1021E000A988B12CB70186E090E00E94E804A81607
:1021F000B906E1F5EA88F12CB30186E090E00E948F
:10220000E804E816F90691F5EB88F12CB60186E0B2
:1022100090E00E94E804E816F90641F5EC88F12CFC
:10222000B80186E090E00E94E804E816F906F1F4AF
:1022300089EB92E00E940D1089EB92E00E940D1054
:1022400084EA92E00E940D1089EB92E00E940D104A
:1022500080907000839481E080938D0780938B073A
:1022600010928C070F2EF5E09F2EF02D24E0820EA9
:1022700080917000881508F077CF80918D078111CB
:1022800016C189EB92E00E940D1089EB92E00E944A
:102290000D108CEB92E00E940D1089EB92E00E94F1
:1022A0000D1005C1823309F0E1C089EB92E00E9474
:1022B0000D108AE692E00E940D1089EB92E00E94D8
:1022C0000D1010E00EC05F9BFECFE12EF12C0E949E
:1022D0002010E5E0F0E0EC0FFD1FEE0DFF1D808308
:1022E0001F5F143080F389EB92E00E940D1089EBA0
:1022F00092E00E940D1087E892E00E940D1089EB99
:1023000092E00E940D1010E00EC05F9BFECFE12E08
:10231000F12C0E942010E9E0F0E0EC0FFD1FEE0D23
:10232000FF1D80831F5F143080F3B12C85C0CD80EA
:10233000D12C0B2D10E078018FEFE81AF80AB701C5
:1023400082E090E00E94E804C816D90609F072C045
:10235000CE80D12C280192E0490E511CB20182E0BE
:1023600090E00E94E804C816D90609F063C0CF8047
:10237000D12C380123E0620E711CB30182E090E0A1
:102380000E94E804C816D90609F054C0C884D12CAC
:102390000C5F1F4FB80182E090E00E94E804C8166D
:1023A000D90609F047C0C984D12CB70183E090E079
:1023B0000E94E804C816D906E9F5EA84F12CB201B6
:1023C00083E090E00E94E804E816F90699F5EB84B2
:1023D000F12CB30183E090E00E94E804E816F906CE
:1023E00049F5EC84F12CB80183E090E00E94E80408
:1023F000E816F906F9F489EB92E00E940D1089EBDA
:1024000092E00E940D1085EE92E00E940D1089EB83
:1024100092E00E940D10B0908907B39482E08093FF
:102420008D0781E080938B0710928C070F2EF5E0CB
:102430009F2EF02D84E0B80E809189078B1508F04F
:1024400076CF80918D07811132C089EB92E00E9496
:102450000D1089EB92E00E940D108CEF92E00E942B
:102460000D1089EB92E00E940D1021C089EB92E0E3
:102470000E940D1089EB92E00E940D1084E293E01F
:102480000E940D1089EB92E00E940D1089EB92E002
:102490000E940D108BE492E00E940D108BE592E0FB
:1024A0000E940D1089EB92E00E940D109A9492E028
:1024B00099123CC30E947E0C86E092E00E94F80BC9
:1024C0000E94BF000E94FF0C0E941B0D0E94AB0CDB
:1024D0002FEF8DEE92E0215080409040E1F700C058
:1024E00000000E94B10C2FEF8DEE92E02150804051
:1024F0009040E1F700C000000E94FF0C0E94AB0C6E
:102500002FEF8DEE92E0215080409040E1F700C027
:1025100000000E94B10C2FEF8DEE92E02150804020
:102520009040E1F700C000000E94E30C2FEF8DEE19
:1025300092E0215080409040E1F700C000000E94EE
:10254000E90C2FEF8DEE92E0215080409040E1F7B2
:1025500000C000000E94E30C2FEF8DEE92E02150AE
:1025600080409040E1F700C000000E94E90C2FEF8E
:102570008DEE92E0215080409040E1F700C00000D5
:102580000E94AB0C0E94E30C2FEF8DEE92E02150E5
:1025900080409040E1F700C000000E94B10C0E9412
:1025A000E90C2FEF8DEE92E0215080409040E1F752
:1025B00000C000000E94B10C0E94E90C2FEF8DEECC
:1025C00092E0215080409040E1F700C000000E945E
:1025D000AB0C0E94E30C2FEF8DEE92E02150804077
:1025E0009040E1F700C000000E94B10C0E94E90C8D
:1025F0002FEF8DEE92E0215080409040E1F700C037
:1026000000000E94AB0C2FEF8DEE92E02150804035
:102610009040E1F700C000000E94B10C0E94E30C62
:102620002FEF8DEE92E0215080409040E1F700C006
:1026300000000E94E90C2FEF8DEE92E021508040C7
:102640009040E1F700C000000E94AB0C2FEF8DEE30
:1026500092E0215080409040E1F700C000000E94CD
:10266000B10C0E94E30C2FEF8DEE92E021508040E0
:102670009040E1F700C000000E94E90C2FEF8DEEC2
:1026800092E0215080409040E1F700C000000E949D
:10269000AB0C2FEF8DEE92E0215080409040E1F79F
:1026A00000C000000E94B10C0E94E30C2FEF8DEEE1
:1026B00092E0215080409040E1F700C000000E946D
:1026C000E90C2FEF8DEE92E0215080409040E1F731
:1026D00000C000000E94C5000E94AB0C2FEF8DEEE1
:1026E00092E0215080409040E1F700C000000E943D
:1026F000B10C0E94E30C2FEF8DEE92E02150804050
:102700009040E1F700C000000E94E90C2FEF8DEE31
:1027100092E0215080409040E1F700C000000E940C
:10272000AB0C2FEF8DEE92E0215080409040E1F70E
:1027300000C000000E94B10C2FEF8DEE92E02150FE
:1027400080409040E1F700C000000E94E30C2FEFB2
:102750008DEE92E0215080409040E1F700C00000F3
:102760000E94E90C2FEF8DEE92E0215080409040C6
:10277000E1F700C000000E94E30C2FEF8DEE92E025
:10278000215080409040E1F700C000000E94E90C19
:102790002FEF8DEE92E0215080409040E1F700C095
:1027A00000000E94AB0C0E94E30C2FEF8DEE92E034
:1027B000215080409040E1F700C000000E94B10C21
:1027C0000E94E90C2FEF8DEE92E021508040904066
:1027D000E1F700C000000E94AB0C0E94E30C2FEF59
:1027E0008DEE92E0215080409040E1F700C0000063
:1027F0000E94B10C0E94E90C2FEF8DEE92E0215067
:1028000080409040E1F700C000000E94AB0C2FEF29
:102810008DEE92E0215080409040E1F700C0000032
:102820000E94B10C0E94E30C2FEF8DEE92E021503C
:1028300080409040E1F700C000000E94E90C2FEFBB
:102840008DEE92E0215080409040E1F700C0000002
:102850000E94AB0C2FEF8DEE92E021508040904013
:10286000E1F700C000000E94B10C0E94E30C2FEFC2
:102870008DEE92E0215080409040E1F700C00000D2
:102880000E94E90C2FEF8DEE92E0215080409040A5
:10289000E1F700C000000E94B70C0E94CB002FEFB0
:1028A0008DEE92E0215080409040E1F700C00000A2
:1028B0000E94B70C0E94CB002FEF83EC99E02150CF
:1028C00080409040E1F700C000000E94B70C0E94D9
:1028D000CB002FEF89E698E1215080409040E1F74E
:1028E00000C000000E94B70C0E94CB002FEF81EEC9
:1028F00094E0215080409040E1F700C000000E9429
:10290000B70C0E94CB002FEF8DEE92E0215080405B
:102910009040E1F700C000000E94B70C0E94CB007D
:102920002FEF8DEE92E0215080409040E1F700C003
:1029300000000E94B70C0E94CB008FE39CE9019736
:10294000F1F700C000000E94B70C0E94CB009FEF7F
:102950002DEE82E0915020408040E1F700C0000061
:102960000E94B70C0E94CB009FEF2DEE82E09150A9
:1029700020408040E1F700C000000E94B70C0E9498
:10298000CB009FEF2DEE82E0915020408040E1F798
:1029900000C000000E94EF0C0E940B0D0E94B70CBB
:1029A0000E94D30C0E94270D0E94CB009FEF23ECC6
:1029B00089E0915020408040E1F700C000000E9473
:1029C000B70C0E94EF0C0E940B0D0E94D30C0E94CA
:1029D000270D0E94CB009FEF2DEE82E0915020400A
:1029E0008040E1F700C000000E94EF0C0E940B0D38
:1029F0000E94B70C0E94D30C0E94270D0E94CB00AE
:102A00009FEF21EE84E0915020408040E1F700C02C
:102A100000000E94EF0C0E940B0D0E94B70C0E9458
:102A2000D30C0E94270D0E94CB009FEF2DEE82E079
:102A3000915020408040E1F700C000000E94EF0C60
:102A40000E940B0D0E94B70C0E94D30C0E94270D10
:102A50000E94CB009FEF23ED80E391502040804007
:102A6000E1F700C000000E94EF0C0E940B0D0E94D5
:102A7000B70C0E94D30C0E94270D0E94CB008FE35D
:102A80009CE90197F1F700C000000E94EF0C0E9442
:102A90000B0D0E94B70C0E94D30C0E94270D0E94C0
:102AA000CB008FE39CE90197F1F700C000000E9482
:102AB000EF0C0E940B0D0E94B70C0E94D30C0E94D9
:102AC000270D0E94CB009FEF21EE84E09150204023
:102AD0008040E1F700C000000E94B70C0E94BF00D8
:102AE0009FEF24E38CE0915020408040E1F700C04C
:102AF00000000E94B70C0E94CB009FEF24E38CE003
:102B0000915020408040E1F700C000000E94B70CC7
:102B10000E94BF009FEF2DEE82E091502040804048
:102B2000E1F700C000000E94C500CACC939401C028
:102B3000912C93E0991508F0CDCA80918D078130D2
:102B400009F0C2C68CB180938E0780918B078823D1
:102B500029F088E080938E0710928B0780918E0772
:102B60008133B9F46CE371E080E090E00E94A70D3E
:102B700080916907811173C60E947E0C82E493E004
:102B80000E94F80B60ED77E080E090E00E94DD0E9F
:102B900066C68233B9F461E670E080E090E00E949E
:102BA000A70D8091690781115AC60E947E0C8FE49F
:102BB00093E00E94F80B60ED77E080E090E00E94E7
:102BC000DD0E4DC6833309F08AC089EB92E00E9486
:102BD0000D1089EB92E00E940D108CE593E00E94AD
:102BE0000D108FE893E00E940D1089EB92E00E9497
:102BF0000D105F9BFECF0E94201080938E078133C3
:102C000069F40E94AB0C80916907811161C00E9438
:102C10007E0C8DE993E00E94F80B5AC0823369F470
:102C20000E94C70C80916907811152C00E947E0CDE
:102C30008CEA93E00E94F80B4BC0833369F40E9446
:102C4000E30C80916907811143C00E947E0C8BEBDD
:102C500093E00E94F80B3CC0843369F40E94FF0C9F
:102C600080916907811134C00E947E0C8AEC93E048
:102C70000E94F80B2DC0853369F40E941B0D8091D2
:102C80006907811125C00E947E0C89ED93E00E94A6
:102C9000F80B1EC08633E1F40E94AB0C0E94C70CF7
:102CA0000E94E30C0E94FF0C0E941B0D809169079B
:102CB00081110EC00E947E0C88EE93E00E94F80BFA
:102CC00060E081E00E94820C85EA93E00E94F80BAC
:102CD00060ED77E080E090E00E94DD0EC0C58433B7
:102CE00009F08AC089EB92E00E940D1089EB92E016
:102CF0000E940D1086EF93E00E940D108FE893E084
:102D00000E940D1089EB92E00E940D105F9BFECF98
:102D10000E94201080938E07813369F40E94B10CC9
:102D200080916907811161C00E947E0C89E294E064
:102D30000E94F80B5AC0823369F40E94CD0C809136
:102D40006907811152C00E947E0C88E394E00E94C2
:102D5000F80B4BC0833369F40E94E90C809169073A
:102D6000811143C00E947E0C87E494E00E94F80B1E
:102D70003CC0843369F40E94050D8091690781117C
:102D800034C00E947E0C86E594E00E94F80B2DC0B2
:102D9000853369F40E94210D80916907811125C056
:102DA0000E947E0C85E694E00E94F80B1EC08633DC
:102DB000E1F40E94B10C0E94CD0C0E94E90C0E942B
:102DC000050D0E94210D0E947E0C809169078111E2
:102DD0000CC088EE93E00E94F80B60E081E00E9456
:102DE000820C81E394E00E94F80B60ED77E080E0D4
:102DF00090E00E94DD0E33C5853309F0CFC089EB2A
:102E000092E00E940D1089EB92E00E940D1084E781
:102E100094E00E940D1089EB92E00E940D10109238
:102E2000820710928307109284071092850700E0B2
:102E300038C05F9BFECFE02EF12C0E942010182F8F
:102E4000F701EA57F84F808380ED810F8A3038F51B
:102E500020E030E040E251E4609182077091830706
:102E600080918407909185070E94E5206B017C0189
:102E7000612F70E060537109072E000C880B990BCD
:102E80000E943020A70196010E941C1F60938207B8
:102E900070938307809384079093850701C005E0B2
:102EA0000F5F033030F280916907811123C00E94C7
:102EB0007E0C8EE994E00E94F80B60E081E00E94B5
:102EC000820C87EA94E00E94F80B6091820770916F
:102ED000830780918407909185070E94FF1F0E94BD
:102EE0000B0C85E20E94B70B60ED77E080E090E08C
:102EF0000E94DD0EC0908207D0908307E090840787
:102F0000F090850720E030E048E652E4C701B601C2
:102F10000E94E0208823BCF020E030E040E752E44B
:102F2000C701B6010E94881F18166CF080E090E07F
:102F3000ACE5B2E48093820790938307A093840763
:102F4000B093850720C020E030E040E752E4C7019D
:102F5000B6010E94E0201816B4F420E030E048E703
:102F600052E4C701B6010E94881F181664F080E081
:102F700090E0A2E8B2E48093820790938307A09345
:102F80008407B093850760918207709183078091D1
:102F90008407909185070E94D60D61C4863309F09D
:102FA00050C01E8A1D8A9091660720E017C0E5E197
:102FB000F0E0EC0FFD1FE20FF11D8DEC989F812DCD
:102FC0001124869586958695482F440F342F330F0C
:102FD000330F340F931B9083982F2F5F223038F3D9
:102FE00089EB92E00E940D1089EB92E00E940D1097
:102FF00083EB94E00E940D108E89805D0E94091081
:103000008D89805D0E94091089EB92E00E940D106D
:1030100080916907811123C40E947E0C83E291E0B4
:103020000E94F80B609166077091670780E090E05E
:103030000E940B0C60ED77E080E090E00E94DD0ED6
:103040000EC4873309F010C189EB92E00E940D1085
:1030500089EB92E00E940D1082EC94E00E940D102A
:1030600082ED94E00E940D108EED94E00E940D1010
:103070005F9BFECF0E94201080938E07813309F062
:103080004BC089EB92E00E940D1089EB92E00E9408
:103090000D108AEE94E00E940D1010E00FC01F5F2B
:1030A0005F9BFECF0E94201060918A07610F482F1E
:1030B00050E070E080E090E00E94C704143078F3A4
:1030C00089EB92E00E940D1089EB92E00E940D10B6
:1030D0008FE095E00E940D1010E00FC01F5F5F9B16
:1030E000FECF0E94201060918A07610F482F50E0A8
:1030F00070E081E090E00E94C704143078F34091C2
:103100008A074C5F40938A0750E060E070E084E0FB
:1031100090E00E94C7049BC0823309F04BC089EB4A
:1031200092E00E940D1089EB92E00E940D108AEE51
:1031300094E00E940D1010E00FC01F5F5F9BFECF58
:103140000E94201060918907610F482F50E070E0C5
:1031500082E090E00E94C704143078F389EB92E09B
:103160000E940D1089EB92E00E940D108FE095E017
:103170000E940D1010E00FC01F5F5F9BFECF0E94EA
:10318000201060918907610F482F50E070E083E0C4
:1031900090E00E94C704143078F3409189074C5F97
:1031A0004093890750E061E070E084E090E00E9485
:1031B000C7044DC0833309F04AC089EB92E00E94F6
:1031C0000D1089EB92E00E940D108AEE94E00E94AF
:1031D0000D1010E00FC01F5F5F9BFECF0E942010FC
:1031E00060917000610F482F50E070E085E090E042
:1031F0000E94C704143078F389EB92E00E940D100E
:1032000089EB92E00E940D108FE095E00E940D1076
:1032100010E00FC01F5F5F9BFECF0E9420106091E7
:103220007000610F482F50E070E086E090E00E944F
:10323000C704143078F3409170004C5F40937000E5
:1032400050E062E070E084E090E00E94C70489EB07
:1032500092E00E940D1089EB92E00E940D1084E331
:1032600095E00E940D10FBC2883309F0EAC289EB99
:1032700092E00E940D1089EB92E00E940D108EE406
:1032800095E00E940D108AE895E00E940D108AE9F1
:1032900095E00E940D1086EA95E00E940D105F9B5C
:1032A000FECF0E94201080938E07813309F0E9C081
:1032B00089EB92E00E940D1089EB92E00E940D10C4
:1032C00082EB95E00E940D1010E00EC05F9BFECFD8
:1032D000E12EF12C0E942010E1E0F0E0EC0FFD1F48
:1032E000EE0DFF1D80831F5F143080F3712C612C65
:1032F000B4C0E980F12C072D10E058012FEFA21A7D
:10330000B20AB50180E090E00E94E804E816F906F0
:1033100009F0A1C0EA80F12C680182E0C80ED11C3E
:10332000B60180E090E00E94E804E816F90609F092
:1033300092C08B80912C780193E0E90EF11CB701CB
:1033400080E090E00E94E8048816990609F083C0A6
:103350008C80912C0C5F1F4FB80180E090E00E94A0
:10336000E8048816990609F076C04FEF50E0B501E1
:1033700080E090E00E94C7044FEF50E0B60180E08B
:1033800090E00E94C7044FEF50E0B70180E090E06A
:103390000E94C7044FEF50E0B80180E090E00E9427
:1033A000C7044FEF50E0B50181E090E00E94C704F0
:1033B0004FEF50E0B60181E090E00E94C7044FEF6C
:1033C00050E0B70181E090E00E94C7044FEF50E069
:1033D000B80181E090E00E94C70473941DC0072DDE
:1033E00010E0780124E0E20EF11CB70180E090E0EB
:1033F0000E94E804AC01B80180E090E00E94C7049C
:10340000B70181E090E00E94E804AC01B80181E0DE
:1034100090E00E94C704739440918A074715F8F61C
:10342000445040938A0750E060E070E084E090E010
:103430000E94C70470908A07739489EB92E00E94FF
:103440000D1089EB92E00E940D1081ED95E00E9435
:103450000D106624639484E0780E80918A078715A6
:1034600008F047CF6110FBC189EB92E00E940D107C
:1034700089EB92E00E940D108DEE95E00E940D10F8
:10348000EEC1823309F0E9C089EB92E00E940D1091
:1034900089EB92E00E940D1081E096E00E940D10F1
:1034A00010E00EC05F9BFECFE12EF12C0E94201099
:1034B000E5E0F0E0EC0FFD1FEE0DFF1D80831F5FC8
:1034C000143080F3712C612CB4C0ED80F12C072DE9
:1034D00010E058019FEFA91AB90AB50182E090E007
:1034E0000E94E804E816F90609F0A1C0EE80F12C6C
:1034F000680122E0C20ED11CB60182E090E00E9479
:10350000E804E816F90609F092C08F80912C780142
:1035100083E0E80EF11CB70182E090E00E94E8042D
:103520008816990609F083C08884912C0C5F1F4F80
:10353000B80182E090E00E94E8048816990609F03C
:1035400076C04FEF50E0B50182E090E00E94C704E2
:103550004FEF50E0B60182E090E00E94C7044FEFC9
:1035600050E0B70182E090E00E94C7044FEF50E0C6
:10357000B80182E090E00E94C7044FEF50E0B5012F
:1035800083E090E00E94C7044FEF50E0B60183E073
:1035900090E00E94C7044FEF50E0B70183E090E055
:1035A0000E94C7044FEF50E0B80183E090E00E9412
:1035B000C70473941DC0072D10E0780194E0E90E54
:1035C000F11CB70182E090E00E94E804AC01B80170
:1035D00082E090E00E94C704B70183E090E00E947F
:1035E000E804AC01B80183E090E00E94C704739442
:1035F000409189074715F8F644504093890750E0F9
:1036000061E070E084E090E00E94C7047090890758
:10361000739489EB92E00E940D1089EB92E00E9476
:103620000D1081ED95E00E940D106624639424E056
:10363000720E80918907871508F047CF61100FC17E
:1036400089EB92E00E940D1089EB92E00E940D1030
:103650008DEE95E00E940D1002C183E380938E07EA
:1036600089EB92E00E940D1089EB92E00E940D1010
:1036700080E296E00E940D1010E00EC05F9BFECF2E
:10368000E12EF12C0E942010EDE0F0E0EC0FFD1F88
:10369000EE0DFF1D80831F5F143080F3712C612CB1
:1036A000BCC0ED84F12C072D10E058018FEFA81A53
:1036B000B80AB50185E090E00E94E804E816F90632
:1036C00009F0A9C0EE84F12C680192E0C90ED11C6A
:1036D000B60185E090E00E94E804E816F90609F0DA
:1036E0009AC08F84912C780123E0E20EF11CB7017F
:1036F00085E090E00E94E8048816990609F08BC0E6
:103700008888912C0C5F1F4FB80185E090E00E94E3
:10371000E8048816990609F07EC04FEF50E0B50125
:1037200085E090E00E94C7044FEF50E0B60185E0CD
:1037300090E00E94C7044FEF50E0B70185E090E0B1
:103740000E94C7044FEF50E0B80185E090E00E946E
:10375000C7044FEF50E0B50186E090E00E94C70437
:103760004FEF50E0B60186E090E00E94C7044FEFB3
:1037700050E0B70186E090E00E94C7044FEF50E0B0
:10378000B80186E090E00E94C70411E0170D1DC04B
:10379000E12EF12C670184E0C80ED11CB60185E052
:1037A00090E00E94E804AC01B70185E090E00E943F
:1037B000C704B60186E090E00E94E804AC01B701BE
:1037C00086E090E00E94C7041F5F8091700081171F
:1037D000F8F69CEF980F90937000711002C08093E0
:1037E00070004091700050E062E070E084E090E092
:1037F0000E94C70470907000739489EB92E00E945D
:103800000D1089EB92E00E940D1081ED95E00E9471
:103810000D106624639494E0790E809170008715F2
:1038200008F03FCF61101BC089EB92E00E940D10A1
:1038300089EB92E00E940D108DEE95E00E940D1034
:103840000EC0883061F089EB92E00E940D1089EB88
:1038500092E00E940D1084E293E00E940D1089EB2B
:1038600092E00E940D108FE396E00E940D1089EB0C
:1038700092E00E940D108AE596E00E940D108CE601
:1038800096E00E940D108FE796E00E940D108EE8E2
:1038900096E00E940D108EE996E00E940D108FEACE
:1038A00096E00E940D108BEC96E00E940D108CEDBE
:1038B00096E00E940D1082EF96E00E940D1089EBB9
:1038C00092E00E940D1086C2823009F083C28CB152
:1038D00080938E0780918B07882329F088E080935E
:1038E0008E0710928B0780918E07813309F08AC072
:1038F00089EB92E00E940D1089EB92E00E940D107E
:103900008CE593E00E940D108FE893E00E940D106B
:1039100089EB92E00E940D105F9BFECF0E94201069
:1039200080938E07813369F40E94AB0C8091690704
:10393000811161C00E947E0C8DE993E00E94F80B1A
:103940005AC0823369F40E94C70C809169078111C3
:1039500052C00E947E0C8CEA93E00E94F80B4BC090
:10396000833369F40E94E30C80916907811143C09D
:103970000E947E0C8BEB93E00E94F80B3CC08433DA
:1039800069F40E94FF0C80916907811134C00E9484
:103990007E0C8AEC93E00E94F80B2DC0853369F40D
:1039A0000E941B0D80916907811125C00E947E0C29
:1039B00089ED93E00E94F80B1EC08633E1F40E946B
:1039C000AB0C0E94C70C0E94E30C0E94FF0C0E94EB
:1039D0001B0D8091690781110EC00E947E0C88EE3C
:1039E00093E00E94F80B60E081E00E94820C85EA7F
:1039F00093E00E94F80B60ED77E080E090E00E9499
:103A0000DD0EC0C1823309F08AC089EB92E00E94CA
:103A10000D1089EB92E00E940D1086EF93E00E945A
:103A20000D108FE893E00E940D1089EB92E00E9448
:103A30000D105F9BFECF0E94201080938E07813374
:103A400069F40E94B10C80916907811161C00E94E4
:103A50007E0C89E294E00E94F80B5AC0823369F42C
:103A60000E94CD0C80916907811152C00E947E0C8A
:103A700088E394E00E94F80B4BC0833369F40E9402
:103A8000E90C80916907811143C00E947E0C87E494
:103A900094E00E94F80B3CC0843369F40E94050D49
:103AA00080916907811134C00E947E0C86E594E004
:103AB0000E94F80B2DC0853369F40E94210D80917E
:103AC0006907811125C00E947E0C85E694E00E9462
:103AD000F80B1EC08633E1F40E94B10C0E94CD0C9D
:103AE0000E94E90C0E94050D0E94210D0E947E0C8F
:103AF0008091690781110CC088EE93E00E94F80B59
:103B000060E081E00E94820C81E394E00E94F80B67
:103B100060ED77E080E090E00E94DD0E33C18333FA
:103B200009F0CFC089EB92E00E940D1089EB92E082
:103B30000E940D1084E794E00E940D1089EB92E042
:103B40000E940D1010928207109283071092840732
:103B50001092850700E038C05F9BFECFE02EF12C6D
:103B60000E942010182FF701EA57F84F808380ED4C
:103B7000810F8A3038F520E030E040E251E4609176
:103B800082077091830780918407909185070E9436
:103B9000E5206B017C01612F70E060537109072EF5
:103BA000000C880B990B0E943020A70196010E94FF
:103BB0001C1F609382077093830780938407909300
:103BC000850701C005E00F5F033030F2809169077F
:103BD000811123C00E947E0C8EE994E00E94F80BB4
:103BE00060E081E00E94820C87EA94E00E94F80B7A
:103BF0006091820770918307809184079091850777
:103C00000E94FF1F0E940B0C85E20E94B70B60ED23
:103C100077E080E090E00E94DD0EC0908207D090B7
:103C20008307E0908407F090850720E030E048E6C5
:103C300052E4C701B6010E94E0208823BCF020E0D6
:103C400030E040E752E4C701B6010E94881F181611
:103C50006CF080E090E0ACE5B2E480938207909352
:103C60008307A0938407B093850720C020E030E04D
:103C700040E752E4C701B6010E94E0201816B4F4F0
:103C800020E030E048E752E4C701B6010E94881FF7
:103C9000181664F080E090E0A2E8B2E48093820716
:103CA00090938307A0938407B09385076091820760
:103CB0007091830780918407909185070E94D60DAB
:103CC00061C0843309F050C01E8A1D8A9091660736
:103CD00020E017C0E5E1F0E0EC0FFD1FE20FF11D61
:103CE0008DEC989F812D1124869586958695482F79
:103CF000440F342F330F330F340F931B9083982FBF
:103D00002F5F223038F389EB92E00E940D1089EB8F
:103D100092E00E940D1083EB94E00E940D108E89BA
:103D2000805D0E9409108D89805D0E94091089EBD9
:103D300092E00E940D1080916907811123C00E94BA
:103D40007E0C83E291E00E94F80B6091660770910F
:103D5000670780E090E00E940B0C60ED77E080E068
:103D600090E00E94DD0E0EC0883061F089EB92E099
:103D70000E940D1089EB92E00E940D1084E293E006
:103D80000E940D1089EB92E00E940D1089EB92E0E9
:103D90000E940D108FE396E00E940D1089EB92E0D7
:103DA0000E940D1089E197E00E940D1088E297E0D3
:103DB0000E940D1088E397E00E940D1089E497E0BF
:103DC0000E940D1082EF96E00E940D1089EB92E0A8
:103DD0000E940D1066960FB6F894DEBF0FBECDBFE1
:103DE000DF91CF91FF91EF91BF91AF919F918F9113
:103DF0007F916F915F914F913F912F911F910F9103
:103E0000FF90EF90DF90CF90BF90AF909F908F90FA
:103E10007F906F905F904F900F900FBE0F901F900C
:103E200018951F920F920FB60F9211240F900FBE8C
:103E30000F901F9018955058BB27AA270E94331F38
:103E40000C94A6200E94982038F00E949F2020F019
:103E500039F49F3F19F426F40C9495200EF4E09564
:103E6000E7FB0C948F20E92F0E94B72058F3BA1774
:103E7000620773078407950720F079F4A6F50C9480
:103E8000D9200EF4E0950B2EBA2FA02D0B01B9010D
:103E900090010C01CA01A0011124FF27591B99F0C0
:103EA000593F50F4503E68F11A16F040A22F232FCC
:103EB000342F4427585FF3CF469537952795A7951C
:103EC000F0405395C9F77EF41F16BA0B620B730BC3
:103ED000840BBAF09150A1F0FF0FBB1F661F771F34
:103EE000881FC2F70EC0BA0F621F731F841F48F4E9
:103EF000879577956795B795F7959E3F08F0B0CF72
:103F00009395880F08F09927EE0F97958795089558
:103F10000E946B2008F481E008950E94A11F0C9478
:103F2000A6200E949F2058F00E94982040F029F47B
:103F30005F3F29F00C948F2051110C94DA200C94DF
:103F400095200E94B72068F39923B1F3552391F38C
:103F5000951B550BBB27AA2762177307840738F0F8
:103F60009F5F5F4F220F331F441FAA1FA9F335D055
:103F70000E2E3AF0E0E832D091505040E695001C09
:103F8000CAF72BD0FE2F29D0660F771F881FBB1FC3
:103F9000261737074807AB07B0E809F0BB0B802DA1
:103FA000BF01FF2793585F4F3AF09E3F510578F0CD
:103FB0000C948F200C94DA205F3FE4F3983ED4F306
:103FC000869577956795B795F7959F5FC9F7880FA1
:103FD000911D9695879597F90895E1E0660F771FF3
:103FE000881FBB1F621773078407BA0720F0621B84
:103FF000730B840BBA0BEE1F88F7E09508950E94AF
:10400000BF2088F09F5798F0B92F9927B751B0F08B
:10401000E1F0660F771F881F991F1AF0BA95C9F74C
:1040200014C0B13091F00E94D920B1E008950C94F1
:10403000D920672F782F8827B85F39F0B93FCCF3A4
:10404000869577956795B395D9F73EF490958095C9
:10405000709561957F4F8F4F9F4F0895E89409C0E9
:1040600097FB3EF490958095709561957F4F8F4FAB
:104070009F4F9923A9F0F92F96E9BB279395F695C1
:10408000879577956795B795F111F8CFFAF4BB0F3F
:1040900011F460FF1BC06F5F7F4F8F4F9F4F16C0A3
:1040A000882311F096E911C0772321F09EE8872F2D
:1040B000762F05C0662371F096E8862F70E060E0E9
:1040C0002AF09A95660F771F881FDAF7880F969562
:1040D000879597F90895990F0008550FAA0BE0E806
:1040E000FEEF16161706E807F907C0F012161306BA
:1040F000E407F50798F0621B730B840B950B39F4FA
:104100000A2661F0232B242B252B21F408950A265F
:1041100009F4A140A6958FEF811D811D089597F99F
:104120009F6780E870E060E008959FEF80EC08955D
:1041300000240A9416161706180609060895002486
:104140000A9412161306140605060895092E039400
:10415000000C11F4882352F0BB0F40F4BF2B11F474
:1041600060FF04C06F5F7F4F8F4F9F4F089557FDD3
:104170009058440F551F59F05F3F71F04795880FD5
:1041800097FB991F61F09F3F79F08795089512166C
:1041900013061406551FF2CF4695F1DF08C0161618
:1041A00017061806991FF1CF8695710561050894C9
:1041B0000895E894BB2766277727CB0197F90895E0
:1041C0000E946B2008F48FEF08950E94F8200C9451
:1041D000A6200E94982038F00E949F2020F095236E
:1041E00011F00C948F200C94952011240C94DA205B
:1041F0000E94B72070F3959FC1F3950F50E0551FB3
:10420000629FF001729FBB27F00DB11D639FAA272B
:10421000F00DB11DAA1F649F6627B00DA11D661F7A
:10422000829F2227B00DA11D621F739FB00DA11D9B
:10423000621F839FA00D611D221F749F3327A00D55
:10424000611D231F849F600D211D822F762F6A2FF1
:1042500011249F5750409AF0F1F088234AF0EE0F56
:10426000FF1FBB1F661F771F881F91505040A9F783
:104270009E3F510580F00C948F200C94DA205F3F14
:10428000E4F3983ED4F3869577956795B795F795BF
:10429000E7959F5FC1F7FE2B880F911D9695879537
:1042A00097F9089597FB072E16F4009407D077FD31
:1042B00009D00E94932107FC05D03EF4909581958A
:1042C0009F4F0895709561957F4F0895A1E21A2E32
:1042D000AA1BBB1BFD010DC0AA1FBB1FEE1FFF1FAA
:1042E000A217B307E407F50720F0A21BB30BE40BFA
:1042F000F50B661F771F881F991F1A9469F7609541
:104300007095809590959B01AC01BD01CF010895FA
:104310000E94A721A59F900DB49F900DA49F800D92
:10432000911D11240895AA1BBB1B51E107C0AA1FB0
:10433000BB1FA617B70710F0A61BB70B881F991F46
:104340005A95A9F780959095BC01CD010895A29F3B
:10435000B001B39FC001A39F700D811D1124911D59
:10436000B29F700D811D1124911D0895F894FFCF07
:104370003132330034353600373839002A302300E3
:1043800004312E6F70656E206C616D707300322E7B
:104390006D6F726500312E6C616D70312020322E90
:1043A0006C616D703200332E6C616D70332020347F
:1043B0002E6D6F726500312E6C616D70342020326D
:1043C0002E6C616D703500332E616C6C206C616DEC
:1043D000707300332E636C6F7365206C616D707346
:1043E00000352E76617269616E74206C616D7000AB
:1043F000362E6D6F726500506C6561736520656E59
:10440000746572207468650025206F662074686585
:10441000206C616D7000372E446973706C61792077
:1044200054656D7000382E45786974207379737403
:10443000656D0054656D70657261747572653A00E2
:104440005468652073797374656D20697320627593
:104450007379210D0A0075736572206E616D653A7E
:104460000070617373776F72643A0053686F7720DE
:1044700070617373776F7264202A006F746865725D
:104480002070726573732023005573657220766502
:104490007269666965640057656C636F6D652100BC
:1044A000312E416363657074207573657220726587
:1044B000717565737420746F20636F6E74726F6CA6
:1044C000207468652073797374656D0D0A00322E4F
:1044D00052656A65637420757365722072657175C3
:1044E00065737420746F20636F6E74726F6C2074C8
:1044F00068652073797374656D0D0A005573657274
:104500002F506173732057726F6E67005472792059
:10451000616761696E00466972696E6720416C610E
:10452000726D210053797374656D206F6E6C696EC6
:1045300065210D0A00507265737320616E79206BDE
:10454000657920746F20636F6E74726F6C2074686D
:10455000652073797374656D0D0A00312E456E7494
:1045600065722041646D696E0D0A00322E456E74CD
:10457000657220557365720D0A00506C6561736534
:1045800020656E74657220796F757220757365721F
:104590006E616D650D0A00506C6561736520656E16
:1045A00074657220796F75722070617373776F72A2
:1045B000640D0A0041646D696E2065786973742C1E
:1045C0002057656C636F6D65210D0A0041646D694C
:1045D0006E20646F6573206E6F74206578697374E4
:1045E0002E20506C6561736520747279206167615B
:1045F000696E0D0A00557365722065786973742CB5
:104600002057656C636F6D65210D0A0055736572E7
:1046100020646F6573206E6F742065786973742EE3
:1046200020506C65617365207472792061676169DF
:104630006E0D0A00506C6561736520656E7465725D
:1046400020636F6D6D616E64206E756D6265720DB5
:104650000A00446F6F72204F70656E6564210044DC
:104660006F6F7220436C6F736564210057686963D4
:1046700068206C616D7020646F20796F75207761A0
:104680006E7420746F206265206F70656E6564289B
:1046900046726F6D203120746F2035290D0A003667
:1046A0002E416C6C204C616D70730D0A004C616D75
:1046B00070283129204F70656E6564004C616D7003
:1046C000283229204F70656E6564004C616D70283A
:1046D0003329204F70656E6564004C616D7028341D
:1046E00029204F70656E6564004C616D7028352916
:1046F000204F70656E656400416C6C204C616D707C
:104700007320417265005768696368206C616D7041
:1047100020646F20796F752077616E7420746F202C
:10472000626520436C6F7365642846726F6D20313B
:1047300020746F2035290D0A004C616D70283129D5
:1047400020436C6F736564004C616D7028322920C2
:10475000436C6F736564004C616D7028332920438E
:104760006C6F736564004C616D7028342920436C54
:104770006F736564004C616D7028352920436C6F40
:1047800073656400506C6561736520656E74657255
:10479000207468652070657263656E74616765205A
:1047A0006F6620746865206C616D700D0A004C6145
:1047B0006D70204F4E210050657263656E746167A5
:1047C000653A0054656D70657261747572653A0D75
:1047D0000A00312E4B657970616420757365720D26
:1047E0000A00322E504320757365720D0A00332E75
:1047F000414420757365720D0A00506C65617365E4
:1048000020656E7465722034206E756D62657273FA
:1048100020617320757365726E616D650D0A0050BD
:104820006C6561736520656E7465722034206E75E9
:104830006D626572732061732070617373776F723C
:10484000640D0A00557365722061646465642073A9
:1048500075636365737366756C6C790D0A00446FDC
:1048600020796F752077616E7420746F2064656C99
:10487000657465206B65797061642075736572205D
:104880002C2050432075736572206F722041646D37
:10489000696E20757365720D0A00312E4B65797053
:1048A000616420557365720D0A00322E5043205505
:1048B0007365720D0A00332E414420557365720DE5
:1048C0000A00506C6561736520656E7465722074B2
:1048D0006865204B5020757365726E616D650D0AB9
:1048E00000557365722064656C657465642073752A
:1048F000636365737366756C6C790D0A0055736537
:1049000072206973206E6F742065786973740D0A64
:1049100000506C6561736520656E74657220746803
:104920006520504320757365726E616D650D0A00D8
:10493000506C6561736520656E746572207468657E
:1049400020414420757365726E616D650D0A0057D4
:10495000616974696E6720666F7220796F75722065
:10496000636F6D6D616E640D0A00312E4F70656E60
:104970002074686520646F6F720D0A00322E436CDC
:104980006F73652074686520646F6F720D0A003361
:104990002E4F70656E206C616D70730D0A00342EA1
:1049A000436C6F7365206C616D70730D0A00352E5A
:1049B00056617269616E74206C616D700D0A00360B
:1049C0002E446973706C6179207468652074656D1C
:1049D00070657261747572650D0A00372E416464EA
:1049E000206E657720757365720D0A00382E446558
:1049F0006C65746520657869737420757365720DD4
:104A00000A005265706C7920776974682074686553
:104A1000206E756D626572206F6620746865206314
:104A20006F6D6D616E640D0A00312E4F70656E20E2
:104A30006C616D70730D0A00322E436C6F736520CC
:104A40006C616D70730D0A00332E56617269616E70
:104A500074206C616D700D0A00342E446973706CA3
:104A60006179207468652074656D70657261747514
:064A700072650D0A000052
:00000001FF
